{
  "_format": "hh-sol-artifact-1",
  "contractName": "Doctors",
  "sourceName": "contracts/Doctors.sol",
  "abi": [
    {
      "inputs": [],
      "stateMutability": "nonpayable",
      "type": "constructor"
    },
    {
      "anonymous": false,
      "inputs": [
        {
          "indexed": false,
          "internalType": "address",
          "name": "doctorAddress",
          "type": "address"
        },
        {
          "indexed": false,
          "internalType": "uint256",
          "name": "regId",
          "type": "uint256"
        },
        {
          "indexed": false,
          "internalType": "string",
          "name": "name",
          "type": "string"
        }
      ],
      "name": "added",
      "type": "event"
    },
    {
      "inputs": [
        {
          "internalType": "uint256",
          "name": "regId",
          "type": "uint256"
        },
        {
          "internalType": "string",
          "name": "name",
          "type": "string"
        },
        {
          "internalType": "string",
          "name": "specialization",
          "type": "string"
        }
      ],
      "name": "addDoctor",
      "outputs": [],
      "stateMutability": "nonpayable",
      "type": "function"
    },
    {
      "inputs": [
        {
          "internalType": "uint256",
          "name": "",
          "type": "uint256"
        }
      ],
      "name": "doctorsMap",
      "outputs": [
        {
          "internalType": "uint256",
          "name": "regId",
          "type": "uint256"
        },
        {
          "internalType": "address",
          "name": "doctorAddress",
          "type": "address"
        },
        {
          "internalType": "string",
          "name": "name",
          "type": "string"
        },
        {
          "internalType": "string",
          "name": "specialization",
          "type": "string"
        },
        {
          "internalType": "uint256",
          "name": "timestamp",
          "type": "uint256"
        }
      ],
      "stateMutability": "view",
      "type": "function"
    },
    {
      "inputs": [],
      "name": "getAllDoctors",
      "outputs": [
        {
          "components": [
            {
              "internalType": "uint256",
              "name": "regId",
              "type": "uint256"
            },
            {
              "internalType": "address",
              "name": "doctorAddress",
              "type": "address"
            },
            {
              "internalType": "string",
              "name": "name",
              "type": "string"
            },
            {
              "internalType": "string",
              "name": "specialization",
              "type": "string"
            },
            {
              "internalType": "uint256",
              "name": "timestamp",
              "type": "uint256"
            }
          ],
          "internalType": "struct Doctors.Doctor[]",
          "name": "",
          "type": "tuple[]"
        }
      ],
      "stateMutability": "view",
      "type": "function"
    },
    {
      "inputs": [
        {
          "internalType": "uint256",
          "name": "regId",
          "type": "uint256"
        }
      ],
      "name": "getDoctorByRegId",
      "outputs": [
        {
          "components": [
            {
              "internalType": "uint256",
              "name": "regId",
              "type": "uint256"
            },
            {
              "internalType": "address",
              "name": "doctorAddress",
              "type": "address"
            },
            {
              "internalType": "string",
              "name": "name",
              "type": "string"
            },
            {
              "internalType": "string",
              "name": "specialization",
              "type": "string"
            },
            {
              "internalType": "uint256",
              "name": "timestamp",
              "type": "uint256"
            }
          ],
          "internalType": "struct Doctors.Doctor",
          "name": "",
          "type": "tuple"
        }
      ],
      "stateMutability": "view",
      "type": "function"
    },
    {
      "inputs": [],
      "name": "getDoctorCount",
      "outputs": [
        {
          "internalType": "uint256",
          "name": "",
          "type": "uint256"
        }
      ],
      "stateMutability": "view",
      "type": "function"
    }
  ],
  "bytecode": "0x608060405234801561001057600080fd5b5033600160006101000a81548173ffffffffffffffffffffffffffffffffffffffff021916908373ffffffffffffffffffffffffffffffffffffffff160217905550611153806100616000396000f3fe608060405234801561001057600080fd5b50600436106100575760003560e01c80630eee70311461005c5780632a24c51314610078578063643508f7146100a857806379111c1c146100dc578063f0d95090146100fa575b600080fd5b61007660048036038101906100719190610a8d565b610118565b005b610092600480360381019061008d9190610a64565b6103e8565b60405161009f9190610dfd565b60405180910390f35b6100c260048036038101906100bd9190610a64565b6105a3565b6040516100d3959493929190610e3a565b60405180910390f35b6100e4610709565b6040516100f19190610e1f565b60405180910390f35b610102610712565b60405161010f9190610dbb565b60405180910390f35b600160009054906101000a900473ffffffffffffffffffffffffffffffffffffffff1673ffffffffffffffffffffffffffffffffffffffff163373ffffffffffffffffffffffffffffffffffffffff16146101a8576040517f08c379a000000000000000000000000000000000000000000000000000000000815260040161019f90610ddd565b60405180910390fd5b60016000808282546101ba9190610f62565b925050819055506040518060a001604052808481526020013373ffffffffffffffffffffffffffffffffffffffff16815260200183815260200182815260200142815250600360008581526020019081526020016000206000820151816000015560208201518160010160006101000a81548173ffffffffffffffffffffffffffffffffffffffff021916908373ffffffffffffffffffffffffffffffffffffffff160217905550604082015181600201908051906020019061027e9291906108ff565b50606082015181600301908051906020019061029b9291906108ff565b506080820151816004015590505060026040518060a001604052808581526020013373ffffffffffffffffffffffffffffffffffffffff1681526020018481526020018381526020014281525090806001815401808255809150506001900390600052602060002090600502016000909190919091506000820151816000015560208201518160010160006101000a81548173ffffffffffffffffffffffffffffffffffffffff021916908373ffffffffffffffffffffffffffffffffffffffff160217905550604082015181600201908051906020019061037e9291906108ff565b50606082015181600301908051906020019061039b9291906108ff565b506080820151816004015550507f2070ae1075c867c8355f78681ba6a6fdc0063d167c7c13656d695d44b9fbf8a13384846040516103db93929190610d7d565b60405180910390a1505050565b6103f0610985565b600360008381526020019081526020016000206040518060a0016040529081600082015481526020016001820160009054906101000a900473ffffffffffffffffffffffffffffffffffffffff1673ffffffffffffffffffffffffffffffffffffffff1673ffffffffffffffffffffffffffffffffffffffff16815260200160028201805461047e90611036565b80601f01602080910402602001604051908101604052809291908181526020018280546104aa90611036565b80156104f75780601f106104cc576101008083540402835291602001916104f7565b820191906000526020600020905b8154815290600101906020018083116104da57829003601f168201915b5050505050815260200160038201805461051090611036565b80601f016020809104026020016040519081016040528092919081815260200182805461053c90611036565b80156105895780601f1061055e57610100808354040283529160200191610589565b820191906000526020600020905b81548152906001019060200180831161056c57829003601f168201915b505050505081526020016004820154815250509050919050565b60036020528060005260406000206000915090508060000154908060010160009054906101000a900473ffffffffffffffffffffffffffffffffffffffff16908060020180546105f290611036565b80601f016020809104026020016040519081016040528092919081815260200182805461061e90611036565b801561066b5780601f106106405761010080835404028352916020019161066b565b820191906000526020600020905b81548152906001019060200180831161064e57829003601f168201915b50505050509080600301805461068090611036565b80601f01602080910402602001604051908101604052809291908181526020018280546106ac90611036565b80156106f95780601f106106ce576101008083540402835291602001916106f9565b820191906000526020600020905b8154815290600101906020018083116106dc57829003601f168201915b5050505050908060040154905085565b60008054905090565b60606002805480602002602001604051908101604052809291908181526020016000905b828210156108f657838290600052602060002090600502016040518060a0016040529081600082015481526020016001820160009054906101000a900473ffffffffffffffffffffffffffffffffffffffff1673ffffffffffffffffffffffffffffffffffffffff1673ffffffffffffffffffffffffffffffffffffffff1681526020016002820180546107c990611036565b80601f01602080910402602001604051908101604052809291908181526020018280546107f590611036565b80156108425780601f1061081757610100808354040283529160200191610842565b820191906000526020600020905b81548152906001019060200180831161082557829003601f168201915b5050505050815260200160038201805461085b90611036565b80601f016020809104026020016040519081016040528092919081815260200182805461088790611036565b80156108d45780601f106108a9576101008083540402835291602001916108d4565b820191906000526020600020905b8154815290600101906020018083116108b757829003601f168201915b5050505050815260200160048201548152505081526020019060010190610736565b50505050905090565b82805461090b90611036565b90600052602060002090601f01602090048101928261092d5760008555610974565b82601f1061094657805160ff1916838001178555610974565b82800160010185558215610974579182015b82811115610973578251825591602001919060010190610958565b5b50905061098191906109ca565b5090565b6040518060a0016040528060008152602001600073ffffffffffffffffffffffffffffffffffffffff1681526020016060815260200160608152602001600081525090565b5b808211156109e35760008160009055506001016109cb565b5090565b60006109fa6109f584610ecc565b610e9b565b905082815260208101848484011115610a1257600080fd5b610a1d848285610ff4565b509392505050565b600082601f830112610a3657600080fd5b8135610a468482602086016109e7565b91505092915050565b600081359050610a5e81611106565b92915050565b600060208284031215610a7657600080fd5b6000610a8484828501610a4f565b91505092915050565b600080600060608486031215610aa257600080fd5b6000610ab086828701610a4f565b935050602084013567ffffffffffffffff811115610acd57600080fd5b610ad986828701610a25565b925050604084013567ffffffffffffffff811115610af657600080fd5b610b0286828701610a25565b9150509250925092565b6000610b188383610c65565b905092915050565b610b2981610fb8565b82525050565b610b3881610fb8565b82525050565b6000610b4982610f0c565b610b538185610f2f565b935083602082028501610b6585610efc565b8060005b85811015610ba15784840389528151610b828582610b0c565b9450610b8d83610f22565b925060208a01995050600181019050610b69565b50829750879550505050505092915050565b6000610bbe82610f17565b610bc88185610f40565b9350610bd8818560208601611003565b610be1816110f5565b840191505092915050565b6000610bf782610f17565b610c018185610f51565b9350610c11818560208601611003565b610c1a816110f5565b840191505092915050565b6000610c32601583610f51565b91507f416363657373206973206e6f7420616c6c6f77656400000000000000000000006000830152602082019050919050565b600060a083016000830151610c7d6000860182610d5f565b506020830151610c906020860182610b20565b5060408301518482036040860152610ca88282610bb3565b91505060608301518482036060860152610cc28282610bb3565b9150506080830151610cd76080860182610d5f565b508091505092915050565b600060a083016000830151610cfa6000860182610d5f565b506020830151610d0d6020860182610b20565b5060408301518482036040860152610d258282610bb3565b91505060608301518482036060860152610d3f8282610bb3565b9150506080830151610d546080860182610d5f565b508091505092915050565b610d6881610fea565b82525050565b610d7781610fea565b82525050565b6000606082019050610d926000830186610b2f565b610d9f6020830185610d6e565b8181036040830152610db18184610bec565b9050949350505050565b60006020820190508181036000830152610dd58184610b3e565b905092915050565b60006020820190508181036000830152610df681610c25565b9050919050565b60006020820190508181036000830152610e178184610ce2565b905092915050565b6000602082019050610e346000830184610d6e565b92915050565b600060a082019050610e4f6000830188610d6e565b610e5c6020830187610b2f565b8181036040830152610e6e8186610bec565b90508181036060830152610e828185610bec565b9050610e916080830184610d6e565b9695505050505050565b6000604051905081810181811067ffffffffffffffff82111715610ec257610ec16110c6565b5b8060405250919050565b600067ffffffffffffffff821115610ee757610ee66110c6565b5b601f19601f8301169050602081019050919050565b6000819050602082019050919050565b600081519050919050565b600081519050919050565b6000602082019050919050565b600082825260208201905092915050565b600082825260208201905092915050565b600082825260208201905092915050565b6000610f6d82610fea565b9150610f7883610fea565b9250827fffffffffffffffffffffffffffffffffffffffffffffffffffffffffffffffff03821115610fad57610fac611068565b5b828201905092915050565b6000610fc382610fca565b9050919050565b600073ffffffffffffffffffffffffffffffffffffffff82169050919050565b6000819050919050565b82818337600083830152505050565b60005b83811015611021578082015181840152602081019050611006565b83811115611030576000848401525b50505050565b6000600282049050600182168061104e57607f821691505b6020821081141561106257611061611097565b5b50919050565b7f4e487b7100000000000000000000000000000000000000000000000000000000600052601160045260246000fd5b7f4e487b7100000000000000000000000000000000000000000000000000000000600052602260045260246000fd5b7f4e487b7100000000000000000000000000000000000000000000000000000000600052604160045260246000fd5b6000601f19601f8301169050919050565b61110f81610fea565b811461111a57600080fd5b5056fea2646970667358221220abd56bd346d3669c562e60f817a8f7b3f342f31fad029de99a6761415e6c42e364736f6c63430008000033",
  "linkReferences": {},
  "deployedLinkReferences": {}
}