{
  "_format": "hh-sol-artifact-1",
  "contractName": "Hospitals",
  "sourceName": "contracts/Hospitals.sol",
  "abi": [
    {
      "anonymous": false,
      "inputs": [
        {
          "indexed": false,
          "internalType": "address",
          "name": "hospitalAddress",
          "type": "address"
        },
        {
          "indexed": false,
          "internalType": "string",
          "name": "name",
          "type": "string"
        }
      ],
      "name": "Registered",
      "type": "event"
    },
    {
      "inputs": [
        {
          "internalType": "string",
          "name": "name",
          "type": "string"
        }
      ],
      "name": "addToBlockChain",
      "outputs": [],
      "stateMutability": "nonpayable",
      "type": "function"
    },
    {
      "inputs": [],
      "name": "getAllHospitals",
      "outputs": [
        {
          "components": [
            {
              "internalType": "address",
              "name": "hospitalAddress",
              "type": "address"
            },
            {
              "internalType": "string",
              "name": "name",
              "type": "string"
            },
            {
              "internalType": "uint256",
              "name": "timestamp",
              "type": "uint256"
            }
          ],
          "internalType": "struct Hospitals.Hospital[]",
          "name": "",
          "type": "tuple[]"
        }
      ],
      "stateMutability": "view",
      "type": "function"
    },
    {
      "inputs": [],
      "name": "getHospitalCount",
      "outputs": [
        {
          "internalType": "uint256",
          "name": "",
          "type": "uint256"
        }
      ],
      "stateMutability": "view",
      "type": "function"
    }
  ],
  "bytecode": "0x608060405234801561001057600080fd5b506108fa806100206000396000f3fe608060405234801561001057600080fd5b50600436106100415760003560e01c80634e9f71541461004657806393495b1714610064578063fe45a81d14610080575b600080fd5b61004e61009e565b60405161005b919061061c565b60405180910390f35b61007e60048036038101906100799190610424565b6101ef565b005b610088610310565b604051610095919061063e565b60405180910390f35b60606001805480602002602001604051908101604052809291908181526020016000905b828210156101e657838290600052602060002090600302016040518060600160405290816000820160009054906101000a900473ffffffffffffffffffffffffffffffffffffffff1673ffffffffffffffffffffffffffffffffffffffff1673ffffffffffffffffffffffffffffffffffffffff16815260200160018201805461014b906107f4565b80601f0160208091040260200160405190810160405280929190818152602001828054610177906107f4565b80156101c45780601f10610199576101008083540402835291602001916101c4565b820191906000526020600020905b8154815290600101906020018083116101a757829003601f168201915b50505050508152602001600282015481525050815260200190600101906100c2565b50505050905090565b60016000808282546102019190610720565b92505081905550600160405180606001604052803373ffffffffffffffffffffffffffffffffffffffff16815260200183815260200142815250908060018154018082558091505060019003906000526020600020906003020160009091909190915060008201518160000160006101000a81548173ffffffffffffffffffffffffffffffffffffffff021916908373ffffffffffffffffffffffffffffffffffffffff16021790555060208201518160010190805190602001906102c7929190610319565b506040820151816002015550507fb3eccf73f39b1c07947c780b2b39df2a1bb058b4037b0a42d0881ca1a028a13233826040516103059291906105ec565b60405180910390a150565b60008054905090565b828054610325906107f4565b90600052602060002090601f016020900481019282610347576000855561038e565b82601f1061036057805160ff191683800117855561038e565b8280016001018555821561038e579182015b8281111561038d578251825591602001919060010190610372565b5b50905061039b919061039f565b5090565b5b808211156103b85760008160009055506001016103a0565b5090565b60006103cf6103ca8461068a565b610659565b9050828152602081018484840111156103e757600080fd5b6103f28482856107b2565b509392505050565b600082601f83011261040b57600080fd5b813561041b8482602086016103bc565b91505092915050565b60006020828403121561043657600080fd5b600082013567ffffffffffffffff81111561045057600080fd5b61045c848285016103fa565b91505092915050565b6000610471838361057e565b905092915050565b61048281610776565b82525050565b61049181610776565b82525050565b60006104a2826106ca565b6104ac81856106ed565b9350836020820285016104be856106ba565b8060005b858110156104fa57848403895281516104db8582610465565b94506104e6836106e0565b925060208a019950506001810190506104c2565b50829750879550505050505092915050565b6000610517826106d5565b61052181856106fe565b93506105318185602086016107c1565b61053a816108b3565b840191505092915050565b6000610550826106d5565b61055a818561070f565b935061056a8185602086016107c1565b610573816108b3565b840191505092915050565b60006060830160008301516105966000860182610479565b50602083015184820360208601526105ae828261050c565b91505060408301516105c360408601826105ce565b508091505092915050565b6105d7816107a8565b82525050565b6105e6816107a8565b82525050565b60006040820190506106016000830185610488565b81810360208301526106138184610545565b90509392505050565b600060208201905081810360008301526106368184610497565b905092915050565b600060208201905061065360008301846105dd565b92915050565b6000604051905081810181811067ffffffffffffffff821117156106805761067f610884565b5b8060405250919050565b600067ffffffffffffffff8211156106a5576106a4610884565b5b601f19601f8301169050602081019050919050565b6000819050602082019050919050565b600081519050919050565b600081519050919050565b6000602082019050919050565b600082825260208201905092915050565b600082825260208201905092915050565b600082825260208201905092915050565b600061072b826107a8565b9150610736836107a8565b9250827fffffffffffffffffffffffffffffffffffffffffffffffffffffffffffffffff0382111561076b5761076a610826565b5b828201905092915050565b600061078182610788565b9050919050565b600073ffffffffffffffffffffffffffffffffffffffff82169050919050565b6000819050919050565b82818337600083830152505050565b60005b838110156107df5780820151818401526020810190506107c4565b838111156107ee576000848401525b50505050565b6000600282049050600182168061080c57607f821691505b602082108114156108205761081f610855565b5b50919050565b7f4e487b7100000000000000000000000000000000000000000000000000000000600052601160045260246000fd5b7f4e487b7100000000000000000000000000000000000000000000000000000000600052602260045260246000fd5b7f4e487b7100000000000000000000000000000000000000000000000000000000600052604160045260246000fd5b6000601f19601f830116905091905056fea2646970667358221220f3420f26961d0cc4285e718ea385c6241ab099ad69ef1f47625e586a56b35e9a64736f6c63430008000033",
  "linkReferences": {},
  "deployedLinkReferences": {}
}