{
  "contractName": "Hospital",
  "abi": [
    {
      "inputs": [],
      "name": "hospitalCount",
      "outputs": [
        {
          "internalType": "uint256",
          "name": "",
          "type": "uint256"
        }
      ],
      "stateMutability": "view",
      "type": "function"
    },
    {
      "inputs": [
        {
          "internalType": "uint256",
          "name": "_hospitalId",
          "type": "uint256"
        },
        {
          "internalType": "string",
          "name": "_hospitalName",
          "type": "string"
        },
        {
          "internalType": "string",
          "name": "_hospitalAddress",
          "type": "string"
        },
        {
          "internalType": "string",
          "name": "_hospitalSpec",
          "type": "string"
        }
      ],
      "name": "addHospital",
      "outputs": [],
      "stateMutability": "nonpayable",
      "type": "function"
    },
    {
      "inputs": [
        {
          "internalType": "uint256",
          "name": "_hospitalId",
          "type": "uint256"
        }
      ],
      "name": "retreiveHospitalDetails",
      "outputs": [
        {
          "internalType": "string",
          "name": "hospitalName",
          "type": "string"
        },
        {
          "internalType": "string",
          "name": "hospitalAddress",
          "type": "string"
        },
        {
          "internalType": "string",
          "name": "hospitalSpec",
          "type": "string"
        }
      ],
      "stateMutability": "view",
      "type": "function"
    }
  ],
  "bytecode": "0x60806040526000805534801561001457600080fd5b50610899806100246000396000f3fe608060405234801561001057600080fd5b50600436106100415760003560e01c8063350dadb71461004657806371a4579e14610064578063cf2b93d214610080575b600080fd5b61004e6100b2565b60405161005b919061042d565b60405180910390f35b61007e600480360381019061007991906105ce565b6100b8565b005b61009a60048036038101906100959190610689565b61016d565b6040516100a99392919061073e565b60405180910390f35b60005481565b6000808154809291906100ca906107b9565b919050555060405180608001604052808581526020018481526020018381526020018281525060016000868152602001908152602001600020600082015181600001556020820151816001019080519060200190610129929190610371565b506040820151816002019080519060200190610146929190610371565b506060820151816003019080519060200190610163929190610371565b5090505050505050565b6060806060600060016000868152602001908152602001600020604051806080016040529081600082015481526020016001820180546101ac90610831565b80601f01602080910402602001604051908101604052809291908181526020018280546101d890610831565b80156102255780601f106101fa57610100808354040283529160200191610225565b820191906000526020600020905b81548152906001019060200180831161020857829003601f168201915b5050505050815260200160028201805461023e90610831565b80601f016020809104026020016040519081016040528092919081815260200182805461026a90610831565b80156102b75780601f1061028c576101008083540402835291602001916102b7565b820191906000526020600020905b81548152906001019060200180831161029a57829003601f168201915b505050505081526020016003820180546102d090610831565b80601f01602080910402602001604051908101604052809291908181526020018280546102fc90610831565b80156103495780601f1061031e57610100808354040283529160200191610349565b820191906000526020600020905b81548152906001019060200180831161032c57829003601f168201915b5050505050815250509050806020015181604001518260600151935093509350509193909250565b82805461037d90610831565b90600052602060002090601f01602090048101928261039f57600085556103e6565b82601f106103b857805160ff19168380011785556103e6565b828001600101855582156103e6579182015b828111156103e55782518255916020019190600101906103ca565b5b5090506103f391906103f7565b5090565b5b808211156104105760008160009055506001016103f8565b5090565b6000819050919050565b61042781610414565b82525050565b6000602082019050610442600083018461041e565b92915050565b6000604051905090565b600080fd5b600080fd5b61046581610414565b811461047057600080fd5b50565b6000813590506104828161045c565b92915050565b600080fd5b600080fd5b6000601f19601f8301169050919050565b7f4e487b7100000000000000000000000000000000000000000000000000000000600052604160045260246000fd5b6104db82610492565b810181811067ffffffffffffffff821117156104fa576104f96104a3565b5b80604052505050565b600061050d610448565b905061051982826104d2565b919050565b600067ffffffffffffffff821115610539576105386104a3565b5b61054282610492565b9050602081019050919050565b82818337600083830152505050565b600061057161056c8461051e565b610503565b90508281526020810184848401111561058d5761058c61048d565b5b61059884828561054f565b509392505050565b600082601f8301126105b5576105b4610488565b5b81356105c584826020860161055e565b91505092915050565b600080600080608085870312156105e8576105e7610452565b5b60006105f687828801610473565b945050602085013567ffffffffffffffff81111561061757610616610457565b5b610623878288016105a0565b935050604085013567ffffffffffffffff81111561064457610643610457565b5b610650878288016105a0565b925050606085013567ffffffffffffffff81111561067157610670610457565b5b61067d878288016105a0565b91505092959194509250565b60006020828403121561069f5761069e610452565b5b60006106ad84828501610473565b91505092915050565b600081519050919050565b600082825260208201905092915050565b60005b838110156106f05780820151818401526020810190506106d5565b838111156106ff576000848401525b50505050565b6000610710826106b6565b61071a81856106c1565b935061072a8185602086016106d2565b61073381610492565b840191505092915050565b600060608201905081810360008301526107588186610705565b9050818103602083015261076c8185610705565b905081810360408301526107808184610705565b9050949350505050565b7f4e487b7100000000000000000000000000000000000000000000000000000000600052601160045260246000fd5b60006107c482610414565b91507fffffffffffffffffffffffffffffffffffffffffffffffffffffffffffffffff8214156107f7576107f661078a565b5b600182019050919050565b7f4e487b7100000000000000000000000000000000000000000000000000000000600052602260045260246000fd5b6000600282049050600182168061084957607f821691505b6020821081141561085d5761085c610802565b5b5091905056fea2646970667358221220068993870b2f21786f743e70188c7d011da6597d98803eff7cd11de93df837bb64736f6c634300080a0033",
  "immutableReferences": {},
  "source": "pragma solidity ^0.8.10;\r\n\r\ncontract Hospital {\r\n    uint256 public hospitalCount = 0;\r\n\r\n    struct HospitalInfo {\r\n        uint256 hospitalId;\r\n        string hospitalName;\r\n        string hospitalAddress;\r\n        string hospitalSpec;\r\n    }\r\n\r\n    mapping(uint256 => HospitalInfo) hospitals;\r\n\r\n    function addHospital(\r\n        uint256 _hospitalId,\r\n        string memory _hospitalName,\r\n        string memory _hospitalAddress,\r\n        string memory _hospitalSpec\r\n    ) public {\r\n        hospitalCount++;\r\n        hospitals[_hospitalId] = HospitalInfo(\r\n            _hospitalId,\r\n            _hospitalName,\r\n            _hospitalAddress,\r\n            _hospitalSpec\r\n        );\r\n    }\r\n\r\n    function retreiveHospitalDetails(uint256 _hospitalId)\r\n        public\r\n        view\r\n        returns (\r\n            string memory hospitalName,\r\n            string memory hospitalAddress,\r\n            string memory hospitalSpec\r\n        )\r\n    {\r\n        HospitalInfo memory h = hospitals[_hospitalId];\r\n        return (h.hospitalName, h.hospitalAddress, h.hospitalSpec);\r\n    }\r\n}\r\n",
  "sourcePath": "D:\\Dev\\Blockchain\\Blockchain in Healthcare\\contracts\\Hospital.sol",
  "compiler": {
    "name": "solc",
    "version": "0.8.10+commit.fc410830.Emscripten.clang"
  },
  "schemaVersion": "3.4.3",
  "updatedAt": "2021-12-11T08:48:15.690Z",
  "devdoc": {
    "kind": "dev",
    "methods": {},
    "version": 1
  },
  "userdoc": {
    "kind": "user",
    "methods": {},
    "version": 1
  }
}